{
  "_format": "hh-sol-artifact-1",
  "contractName": "SpheraVault",
  "sourceName": "contracts/SpheraPBT.sol",
  "abi": [
    {
      "inputs": [
        {
          "internalType": "string",
          "name": "name_",
          "type": "string"
        },
        {
          "internalType": "string",
          "name": "symbol_",
          "type": "string"
        }
      ],
      "stateMutability": "nonpayable",
      "type": "constructor"
    },
    {
      "inputs": [],
      "name": "ArrayLengthMismatch",
      "type": "error"
    },
    {
      "inputs": [],
      "name": "BlockNumberTooOld",
      "type": "error"
    },
    {
      "inputs": [],
      "name": "InvalidBlockNumber",
      "type": "error"
    },
    {
      "inputs": [],
      "name": "InvalidSignature",
      "type": "error"
    },
    {
      "inputs": [],
      "name": "MintNotOpen",
      "type": "error"
    },
    {
      "inputs": [],
      "name": "NoMappedTokenForChip",
      "type": "error"
    },
    {
      "inputs": [],
      "name": "NoMintedTokenForChip",
      "type": "error"
    },
    {
      "inputs": [],
      "name": "SeedingChipDataForExistingToken",
      "type": "error"
    },
    {
      "inputs": [],
      "name": "UpdatingChipForUnsetChipMapping",
      "type": "error"
    },
    {
      "anonymous": false,
      "inputs": [
        {
          "indexed": true,
          "internalType": "address",
          "name": "owner",
          "type": "address"
        },
        {
          "indexed": true,
          "internalType": "address",
          "name": "approved",
          "type": "address"
        },
        {
          "indexed": true,
          "internalType": "uint256",
          "name": "tokenId",
          "type": "uint256"
        }
      ],
      "name": "Approval",
      "type": "event"
    },
    {
      "anonymous": false,
      "inputs": [
        {
          "indexed": true,
          "internalType": "address",
          "name": "owner",
          "type": "address"
        },
        {
          "indexed": true,
          "internalType": "address",
          "name": "operator",
          "type": "address"
        },
        {
          "indexed": false,
          "internalType": "bool",
          "name": "approved",
          "type": "bool"
        }
      ],
      "name": "ApprovalForAll",
      "type": "event"
    },
    {
      "anonymous": false,
      "inputs": [
        {
          "indexed": true,
          "internalType": "address",
          "name": "previousOwner",
          "type": "address"
        },
        {
          "indexed": true,
          "internalType": "address",
          "name": "newOwner",
          "type": "address"
        }
      ],
      "name": "OwnershipTransferred",
      "type": "event"
    },
    {
      "anonymous": false,
      "inputs": [
        {
          "indexed": true,
          "internalType": "uint256",
          "name": "tokenId",
          "type": "uint256"
        },
        {
          "indexed": true,
          "internalType": "address",
          "name": "oldChipAddress",
          "type": "address"
        },
        {
          "indexed": true,
          "internalType": "address",
          "name": "newChipAddress",
          "type": "address"
        }
      ],
      "name": "PBTChipRemapping",
      "type": "event"
    },
    {
      "anonymous": false,
      "inputs": [
        {
          "indexed": true,
          "internalType": "uint256",
          "name": "tokenId",
          "type": "uint256"
        },
        {
          "indexed": true,
          "internalType": "address",
          "name": "chipAddress",
          "type": "address"
        }
      ],
      "name": "PBTMint",
      "type": "event"
    },
    {
      "anonymous": false,
      "inputs": [
        {
          "indexed": true,
          "internalType": "address",
          "name": "from",
          "type": "address"
        },
        {
          "indexed": true,
          "internalType": "address",
          "name": "to",
          "type": "address"
        },
        {
          "indexed": true,
          "internalType": "uint256",
          "name": "tokenId",
          "type": "uint256"
        }
      ],
      "name": "Transfer",
      "type": "event"
    },
    {
      "inputs": [
        {
          "internalType": "address",
          "name": "to",
          "type": "address"
        },
        {
          "internalType": "uint256",
          "name": "tokenId",
          "type": "uint256"
        }
      ],
      "name": "approve",
      "outputs": [],
      "stateMutability": "nonpayable",
      "type": "function"
    },
    {
      "inputs": [
        {
          "internalType": "address",
          "name": "owner",
          "type": "address"
        }
      ],
      "name": "balanceOf",
      "outputs": [
        {
          "internalType": "uint256",
          "name": "",
          "type": "uint256"
        }
      ],
      "stateMutability": "view",
      "type": "function"
    },
    {
      "inputs": [],
      "name": "canMint",
      "outputs": [
        {
          "internalType": "bool",
          "name": "",
          "type": "bool"
        }
      ],
      "stateMutability": "view",
      "type": "function"
    },
    {
      "inputs": [
        {
          "internalType": "uint256",
          "name": "tokenId",
          "type": "uint256"
        }
      ],
      "name": "getApproved",
      "outputs": [
        {
          "internalType": "address",
          "name": "",
          "type": "address"
        }
      ],
      "stateMutability": "view",
      "type": "function"
    },
    {
      "inputs": [],
      "name": "getMaxBlockhashValidWindow",
      "outputs": [
        {
          "internalType": "uint256",
          "name": "",
          "type": "uint256"
        }
      ],
      "stateMutability": "pure",
      "type": "function"
    },
    {
      "inputs": [
        {
          "internalType": "address",
          "name": "owner",
          "type": "address"
        },
        {
          "internalType": "address",
          "name": "operator",
          "type": "address"
        }
      ],
      "name": "isApprovedForAll",
      "outputs": [
        {
          "internalType": "bool",
          "name": "",
          "type": "bool"
        }
      ],
      "stateMutability": "view",
      "type": "function"
    },
    {
      "inputs": [
        {
          "internalType": "uint256",
          "name": "tokenId",
          "type": "uint256"
        },
        {
          "internalType": "bytes",
          "name": "payload",
          "type": "bytes"
        },
        {
          "internalType": "bytes",
          "name": "signature",
          "type": "bytes"
        }
      ],
      "name": "isChipSignatureForToken",
      "outputs": [
        {
          "internalType": "bool",
          "name": "",
          "type": "bool"
        }
      ],
      "stateMutability": "view",
      "type": "function"
    },
    {
      "inputs": [
        {
          "internalType": "bytes",
          "name": "signatureFromChip",
          "type": "bytes"
        },
        {
          "internalType": "uint256",
          "name": "blockNumberUsedInSig",
          "type": "uint256"
        }
      ],
      "name": "mintPBT",
      "outputs": [],
      "stateMutability": "nonpayable",
      "type": "function"
    },
    {
      "inputs": [],
      "name": "name",
      "outputs": [
        {
          "internalType": "string",
          "name": "",
          "type": "string"
        }
      ],
      "stateMutability": "view",
      "type": "function"
    },
    {
      "inputs": [],
      "name": "openMint",
      "outputs": [],
      "stateMutability": "nonpayable",
      "type": "function"
    },
    {
      "inputs": [],
      "name": "owner",
      "outputs": [
        {
          "internalType": "address",
          "name": "",
          "type": "address"
        }
      ],
      "stateMutability": "view",
      "type": "function"
    },
    {
      "inputs": [
        {
          "internalType": "uint256",
          "name": "tokenId",
          "type": "uint256"
        }
      ],
      "name": "ownerOf",
      "outputs": [
        {
          "internalType": "address",
          "name": "",
          "type": "address"
        }
      ],
      "stateMutability": "view",
      "type": "function"
    },
    {
      "inputs": [],
      "name": "renounceOwnership",
      "outputs": [],
      "stateMutability": "nonpayable",
      "type": "function"
    },
    {
      "inputs": [
        {
          "internalType": "address",
          "name": "from",
          "type": "address"
        },
        {
          "internalType": "address",
          "name": "to",
          "type": "address"
        },
        {
          "internalType": "uint256",
          "name": "tokenId",
          "type": "uint256"
        }
      ],
      "name": "safeTransferFrom",
      "outputs": [],
      "stateMutability": "nonpayable",
      "type": "function"
    },
    {
      "inputs": [
        {
          "internalType": "address",
          "name": "from",
          "type": "address"
        },
        {
          "internalType": "address",
          "name": "to",
          "type": "address"
        },
        {
          "internalType": "uint256",
          "name": "tokenId",
          "type": "uint256"
        },
        {
          "internalType": "bytes",
          "name": "data",
          "type": "bytes"
        }
      ],
      "name": "safeTransferFrom",
      "outputs": [],
      "stateMutability": "nonpayable",
      "type": "function"
    },
    {
      "inputs": [
        {
          "internalType": "address[]",
          "name": "chipAddresses",
          "type": "address[]"
        },
        {
          "internalType": "uint256[]",
          "name": "tokenIds",
          "type": "uint256[]"
        },
        {
          "internalType": "bool",
          "name": "throwIfTokenAlreadyMinted",
          "type": "bool"
        }
      ],
      "name": "seedChipToTokenMapping",
      "outputs": [],
      "stateMutability": "nonpayable",
      "type": "function"
    },
    {
      "inputs": [
        {
          "internalType": "address",
          "name": "operator",
          "type": "address"
        },
        {
          "internalType": "bool",
          "name": "approved",
          "type": "bool"
        }
      ],
      "name": "setApprovalForAll",
      "outputs": [],
      "stateMutability": "nonpayable",
      "type": "function"
    },
    {
      "inputs": [
        {
          "internalType": "string",
          "name": "baseURI",
          "type": "string"
        }
      ],
      "name": "setBaseURI",
      "outputs": [],
      "stateMutability": "nonpayable",
      "type": "function"
    },
    {
      "inputs": [],
      "name": "supply",
      "outputs": [
        {
          "internalType": "uint256",
          "name": "",
          "type": "uint256"
        }
      ],
      "stateMutability": "view",
      "type": "function"
    },
    {
      "inputs": [
        {
          "internalType": "bytes4",
          "name": "interfaceId",
          "type": "bytes4"
        }
      ],
      "name": "supportsInterface",
      "outputs": [
        {
          "internalType": "bool",
          "name": "",
          "type": "bool"
        }
      ],
      "stateMutability": "view",
      "type": "function"
    },
    {
      "inputs": [],
      "name": "symbol",
      "outputs": [
        {
          "internalType": "string",
          "name": "",
          "type": "string"
        }
      ],
      "stateMutability": "view",
      "type": "function"
    },
    {
      "inputs": [
        {
          "internalType": "address",
          "name": "chipAddress",
          "type": "address"
        }
      ],
      "name": "tokenIdFor",
      "outputs": [
        {
          "internalType": "uint256",
          "name": "",
          "type": "uint256"
        }
      ],
      "stateMutability": "view",
      "type": "function"
    },
    {
      "inputs": [
        {
          "internalType": "address",
          "name": "chipAddress",
          "type": "address"
        }
      ],
      "name": "tokenIdMappedFor",
      "outputs": [
        {
          "internalType": "uint256",
          "name": "",
          "type": "uint256"
        }
      ],
      "stateMutability": "view",
      "type": "function"
    },
    {
      "inputs": [
        {
          "internalType": "uint256",
          "name": "tokenId",
          "type": "uint256"
        }
      ],
      "name": "tokenURI",
      "outputs": [
        {
          "internalType": "string",
          "name": "",
          "type": "string"
        }
      ],
      "stateMutability": "view",
      "type": "function"
    },
    {
      "inputs": [
        {
          "internalType": "address",
          "name": "from",
          "type": "address"
        },
        {
          "internalType": "address",
          "name": "to",
          "type": "address"
        },
        {
          "internalType": "uint256",
          "name": "tokenId",
          "type": "uint256"
        }
      ],
      "name": "transferFrom",
      "outputs": [],
      "stateMutability": "nonpayable",
      "type": "function"
    },
    {
      "inputs": [
        {
          "internalType": "address",
          "name": "newOwner",
          "type": "address"
        }
      ],
      "name": "transferOwnership",
      "outputs": [],
      "stateMutability": "nonpayable",
      "type": "function"
    },
    {
      "inputs": [
        {
          "internalType": "bytes",
          "name": "signatureFromChip",
          "type": "bytes"
        },
        {
          "internalType": "uint256",
          "name": "blockNumberUsedInSig",
          "type": "uint256"
        }
      ],
      "name": "transferTokenWithChip",
      "outputs": [],
      "stateMutability": "nonpayable",
      "type": "function"
    },
    {
      "inputs": [
        {
          "internalType": "bytes",
          "name": "signatureFromChip",
          "type": "bytes"
        },
        {
          "internalType": "uint256",
          "name": "blockNumberUsedInSig",
          "type": "uint256"
        },
        {
          "internalType": "bool",
          "name": "useSafeTransferFrom",
          "type": "bool"
        }
      ],
      "name": "transferTokenWithChip",
      "outputs": [],
      "stateMutability": "nonpayable",
      "type": "function"
    },
    {
      "inputs": [
        {
          "internalType": "address[]",
          "name": "chipAddressesOld",
          "type": "address[]"
        },
        {
          "internalType": "address[]",
          "name": "chipAddressesNew",
          "type": "address[]"
        }
      ],
      "name": "updateChips",
      "outputs": [],
      "stateMutability": "nonpayable",
      "type": "function"
    }
  ],
  "bytecode": "0x60806040523480156200001157600080fd5b50604051620025793803806200257983398101604081905262000034916200025a565b818181818181816000908051906020019062000052929190620000e7565b50805162000068906001906020840190620000e7565b5050505050505062000089620000836200009160201b60201c565b62000095565b505062000300565b3390565b600780546001600160a01b038381166001600160a01b0319831681179093556040519116919082907f8be0079c531659141344cd1fd0a4f28419497f9722a3daafe3b4186f6b6457e090600090a35050565b828054620000f590620002c4565b90600052602060002090601f01602090048101928262000119576000855562000164565b82601f106200013457805160ff191683800117855562000164565b8280016001018555821562000164579182015b828111156200016457825182559160200191906001019062000147565b506200017292915062000176565b5090565b5b8082111562000172576000815560010162000177565b634e487b7160e01b600052604160045260246000fd5b600082601f830112620001b557600080fd5b81516001600160401b0380821115620001d257620001d26200018d565b604051601f8301601f19908116603f01168101908282118183101715620001fd57620001fd6200018d565b816040528381526020925086838588010111156200021a57600080fd5b600091505b838210156200023e57858201830151818301840152908201906200021f565b83821115620002505760008385830101525b9695505050505050565b600080604083850312156200026e57600080fd5b82516001600160401b03808211156200028657600080fd5b6200029486838701620001a3565b93506020850151915080821115620002ab57600080fd5b50620002ba85828601620001a3565b9150509250929050565b600181811c90821680620002d957607f821691505b602082108103620002fa57634e487b7160e01b600052602260045260246000fd5b50919050565b61226980620003106000396000f3fe608060405234801561001057600080fd5b50600436106101cf5760003560e01c80638da5cb5b11610104578063c7e460ba116100a2578063d67d13ad11610071578063d67d13ad146103ac578063dcf960ee146103bf578063e985e9c5146103d2578063f2fde38b146103e857600080fd5b8063c7e460ba14610360578063c87b56dd14610373578063d30d520c14610386578063d427e7541461039957600080fd5b8063b88d4fde116100de578063b88d4fde14610334578063ba70316f14610342578063bce6d6721461034b578063beb9716d1461035357600080fd5b80638da5cb5b1461030857806395d89b4114610319578063a22cb4651461032157600080fd5b806342842e0e116101715780636352211e1161014b5780636352211e146102c75780636b953dd8146102da57806370a08231146102ed578063715018a61461030057600080fd5b806342842e0e1461028e5780634b5f42ea146102a157806355f804b3146102b457600080fd5b8063081812fc116101ad578063081812fc1461022857806308daee3614610253578063095ea7b31461026657806323b872dd1461027b57600080fd5b806301ffc9a7146101d4578063047fc9aa146101fc57806306fdde0314610213575b600080fd5b6101e76101e2366004611b9c565b6103fb565b60405190151581526020015b60405180910390f35b61020560085481565b6040519081526020016101f3565b61021b610426565b6040516101f39190611c11565b61023b610236366004611c24565b6104b8565b6040516001600160a01b0390911681526020016101f3565b610205610261366004611c59565b610529565b610279610274366004611c74565b61056d565b005b610279610289366004611c9e565b6105bf565b61027961029c366004611c9e565b610616565b6101e76102af366004611d7d565b610671565b6102796102c2366004611e2c565b610740565b61023b6102d5366004611c24565b610759565b6102056102e8366004611c59565b6107be565b6102056102fb366004611c59565b61081d565b6102796108a3565b6007546001600160a01b031661023b565b61021b6108b7565b61027961032f366004611e7e565b6108c6565b61027961029c366004611eb1565b620186a0610205565b610279610922565b6009546101e79060ff1681565b61027961036e366004611f5e565b610939565b61021b610381366004611c24565b6109b7565b610279610394366004611fdf565b610a1d565b6102796103a736600461204b565b610a37565b6102796103ba36600461204b565b610a74565b6102796103cd366004612097565b610a7d565b6101e76103e03660046120f4565b600092915050565b6102796103f6366004611c59565b610a89565b60006001600160e01b03198216634901df9f60e01b1480610420575061042082610b02565b92915050565b6060600080546104359061211e565b80601f01602080910402602001604051908101604052809291908181526020018280546104619061211e565b80156104ae5780601f10610483576101008083540402835291602001916104ae565b820191906000526020600020905b81548152906001019060200180831161049157829003601f168201915b5050505050905090565b6000818152600260205260408120546001600160a01b03166105215760405162461bcd60e51b815260206004820152601860248201527f4552433732313a20696e76616c696420746f6b656e204944000000000000000060448201526064015b60405180910390fd5b506000919050565b600080610535836107be565b6000818152600260205260409020549091506001600160a01b031661042057604051631d240ff960e21b815260040160405180910390fd5b60405162461bcd60e51b815260206004820152602160248201527f455243373231207075626c696320617070726f7665206e6f7420616c6c6f77656044820152601960fa1b6064820152608401610518565b60405162461bcd60e51b815260206004820152602660248201527f455243373231207075626c6963207472616e7366657246726f6d206e6f7420616044820152651b1b1bddd95960d21b6064820152608401610518565b60405162461bcd60e51b815260206004820152602a60248201527f455243373231207075626c696320736166655472616e7366657246726f6d206e6044820152691bdd08185b1b1bddd95960b21b6064820152608401610518565b6000838152600260205260408120546001600160a01b03166106a657604051631d240ff960e21b815260040160405180910390fd5b825160208401207f19457468657265756d205369676e6564204d6573736167653a0a3332000000006000908152601c91909152603c8120906106e88285610b52565b6001600160a01b038116600090815260066020526040902060010154909150600160a01b900460ff16801561073457506001600160a01b03811660009081526006602052604090205486145b925050505b9392505050565b610748610b76565b610754600a8383611aed565b505050565b6000818152600260205260408120546001600160a01b0316806104205760405162461bcd60e51b815260206004820152601860248201527f4552433732313a20696e76616c696420746f6b656e20494400000000000000006044820152606401610518565b6001600160a01b038116600090815260066020526040812060010154600160a01b900460ff1661080157604051630239974760e01b815260040160405180910390fd5b506001600160a01b031660009081526006602052604090205490565b60006001600160a01b0382166108875760405162461bcd60e51b815260206004820152602960248201527f4552433732313a2061646472657373207a65726f206973206e6f7420612076616044820152683634b21037bbb732b960b91b6064820152608401610518565b506001600160a01b031660009081526003602052604090205490565b6108ab610b76565b6108b56000610bd0565b565b6060600180546104359061211e565b60405162461bcd60e51b815260206004820152602b60248201527f455243373231207075626c696320736574417070726f76616c466f72416c6c2060448201526a1b9bdd08185b1b1bddd95960aa1b6064820152608401610518565b61092a610b76565b6009805460ff19166001179055565b610941610b76565b6109b085858080602002602001604051908101604052809392919081815260200183836020028082843760009201919091525050604080516020808902828101820190935288825290935088925087918291850190849080828437600092019190915250869250610c22915050565b5050505050565b60606109c282610d40565b60006109cc610da4565b905060008151116109ec5760405180602001604052806000815250610739565b806109f684610db3565b604051602001610a07929190612158565b6040516020818303038152906040529392505050565b610a25610b76565b610a3184848484610e53565b50505050565b60095460ff16610a5a5760405163951b974f60e01b815260040160405180910390fd5b610a65838383611035565b50506008805460010190555050565b61075483838360005b610a3184848484611096565b610a91610b76565b6001600160a01b038116610af65760405162461bcd60e51b815260206004820152602660248201527f4f776e61626c653a206e6577206f776e657220697320746865207a65726f206160448201526564647265737360d01b6064820152608401610518565b610aff81610bd0565b50565b60006001600160e01b031982166380ac58cd60e01b1480610b3357506001600160e01b03198216635b5e139f60e01b145b8061042057506301ffc9a760e01b6001600160e01b0319831614610420565b6000806000610b6185856110e7565b91509150610b6e8161112c565b509392505050565b6007546001600160a01b031633146108b55760405162461bcd60e51b815260206004820181905260248201527f4f776e61626c653a2063616c6c6572206973206e6f7420746865206f776e65726044820152606401610518565b600780546001600160a01b038381166001600160a01b0319831681179093556040519116919082907f8be0079c531659141344cd1fd0a4f28419497f9722a3daafe3b4186f6b6457e090600090a35050565b815183518114610c455760405163512509d360e11b815260040160405180910390fd5b60005b818110156109b0576000858281518110610c6457610c64612187565b602002602001015190506000858381518110610c8257610c82612187565b60200260200101519050848015610caf57506000818152600260205260409020546001600160a01b031615155b15610ccd57604051633fc613e760e01b815260040160405180910390fd5b604080516060810182529182526001600160a01b0392831660208084018281526001858501818152600094855260069093529390922093518455905192909101805491511515600160a01b026001600160a81b03199092169290931691909117179055610d398161219d565b9050610c48565b6000818152600260205260409020546001600160a01b0316610aff5760405162461bcd60e51b815260206004820152601860248201527f4552433732313a20696e76616c696420746f6b656e20494400000000000000006044820152606401610518565b6060600a80546104359061211e565b60606000610dc083611276565b600101905060008167ffffffffffffffff811115610de057610de0611cda565b6040519080825280601f01601f191660200182016040528015610e0a576020820181803683370190505b5090508181016020015b600019017f3031323334353637383961626364656600000000000000000000000000000000600a86061a8153600a8504945084610e1457509392505050565b828114610e735760405163512509d360e11b815260040160405180910390fd5b60005b838110156109b0576000858583818110610e9257610e92612187565b9050602002016020810190610ea79190611c59565b6001600160a01b0381811660009081526006602090815260409182902082516060810184528154815260019091015493841691810191909152600160a01b90920460ff16151590820181905291925090610f145760405163794ea60960e01b815260040160405180910390fd5b6000858585818110610f2857610f28612187565b9050602002016020810190610f3d9190611c59565b8251604080516060810182528281526001600160a01b03848116602080840182815260018587018181526000948552600684528785209651875591519501805491511515600160a01b026001600160a81b0319909216958516959095171790935584815260029092529190205492935090911615610ff757816001600160a01b0316846001600160a01b0316827fcd66beec785ca42d0623b531cba30cb24eacae50d76d9301b6945341cbd5856560405160405180910390a45b5050506001600160a01b0316600090815260066020526040812090815560010180546001600160a81b031916905561102e8161219d565b9050610e76565b600080611043858585611358565b805190915061105233826114f3565b81602001516001600160a01b0316817f1e98ed4919fa421d4b871082794f2c63228dd0b5efb584e1a6131de3a7d26cb260405160405180910390a395945050505050565b60006110a3858585611358565b51905081156110d4576110cf6110b882610759565b33836040518060200160405280600081525061167e565b6109b0565b6109b06110e082610759565b33836116fc565b600080825160410361111d5760208301516040840151606085015160001a611111878285856118dc565b94509450505050611125565b506000905060025b9250929050565b6000816004811115611140576111406121c4565b036111485750565b600181600481111561115c5761115c6121c4565b036111a95760405162461bcd60e51b815260206004820152601860248201527f45434453413a20696e76616c6964207369676e617475726500000000000000006044820152606401610518565b60028160048111156111bd576111bd6121c4565b0361120a5760405162461bcd60e51b815260206004820152601f60248201527f45434453413a20696e76616c6964207369676e6174757265206c656e677468006044820152606401610518565b600381600481111561121e5761121e6121c4565b03610aff5760405162461bcd60e51b815260206004820152602260248201527f45434453413a20696e76616c6964207369676e6174757265202773272076616c604482015261756560f01b6064820152608401610518565b6000807a184f03e93ff9f4daa797ed6e38ed64bf6a1f01000000000000000083106112bf577a184f03e93ff9f4daa797ed6e38ed64bf6a1f010000000000000000830492506040015b6d04ee2d6d415b85acef810000000083106112eb576d04ee2d6d415b85acef8100000000830492506020015b662386f26fc10000831061130957662386f26fc10000830492506010015b6305f5e1008310611321576305f5e100830492506008015b612710831061133557612710830492506004015b60648310611347576064830492506002015b600a83106104205760010192915050565b604080516060810182526000808252602082018190529181019190915281431161139557604051631391e11b60e21b815260040160405180910390fd5b620186a082430311156113bb576040516351cc51c760e11b815260040160405180910390fd5b6040516bffffffffffffffffffffffff193360601b1660208201528240603482018190529060009061143390605401604051602081830303815290604052805190602001207f19457468657265756d205369676e6564204d6573736167653a0a3332000000006000908152601c91909152603c902090565b9050600061147987878080601f0160208091040260200160405190810160405280939291908181526020018383808284376000920191909152508693925050610b529050565b6001600160a01b0381811660009081526006602090815260409182902082516060810184528154815260019091015493841691810191909152600160a01b90920460ff1615801591830191909152919250906114da57935061073992505050565b604051638baa579f60e01b815260040160405180910390fd5b6001600160a01b0382166115495760405162461bcd60e51b815260206004820181905260248201527f4552433732313a206d696e7420746f20746865207a65726f20616464726573736044820152606401610518565b6000818152600260205260409020546001600160a01b0316156115ae5760405162461bcd60e51b815260206004820152601c60248201527f4552433732313a20746f6b656e20616c7265616479206d696e746564000000006044820152606401610518565b6000818152600260205260409020546001600160a01b0316156116135760405162461bcd60e51b815260206004820152601c60248201527f4552433732313a20746f6b656e20616c7265616479206d696e746564000000006044820152606401610518565b6001600160a01b038216600081815260036020908152604080832080546001019055848352600290915280822080546001600160a01b0319168417905551839291907fddf252ad1be2c89b69c2b068fc378daa952ba7f163c4a11628f55a4df523b3ef908290a45050565b6116898484846116fc565b611695848484846119a0565b610a315760405162461bcd60e51b815260206004820152603260248201527f4552433732313a207472616e7366657220746f206e6f6e20455243373231526560448201527131b2b4bb32b91034b6b83632b6b2b73a32b960711b6064820152608401610518565b826001600160a01b031661170f82610759565b6001600160a01b0316146117735760405162461bcd60e51b815260206004820152602560248201527f4552433732313a207472616e736665722066726f6d20696e636f72726563742060448201526437bbb732b960d91b6064820152608401610518565b6001600160a01b0382166117d55760405162461bcd60e51b8152602060048201526024808201527f4552433732313a207472616e7366657220746f20746865207a65726f206164646044820152637265737360e01b6064820152608401610518565b826001600160a01b03166117e882610759565b6001600160a01b03161461184c5760405162461bcd60e51b815260206004820152602560248201527f4552433732313a207472616e736665722066726f6d20696e636f72726563742060448201526437bbb732b960d91b6064820152608401610518565b600081815260046020908152604080832080546001600160a01b03199081169091556001600160a01b0387811680865260038552838620805460001901905590871680865283862080546001019055868652600290945282852080549092168417909155905184937fddf252ad1be2c89b69c2b068fc378daa952ba7f163c4a11628f55a4df523b3ef91a4505050565b6000807f7fffffffffffffffffffffffffffffff5d576e7357a4501ddfe92f46681b20a08311156119135750600090506003611997565b6040805160008082526020820180845289905260ff881692820192909252606081018690526080810185905260019060a0016020604051602081039080840390855afa158015611967573d6000803e3d6000fd5b5050604051601f1901519150506001600160a01b03811661199057600060019250925050611997565b9150600090505b94509492505050565b60006001600160a01b0384163b15611ae157604051630a85bd0160e11b81526001600160a01b0385169063150b7a02906119e49033908990889088906004016121da565b6020604051808303816000875af1925050508015611a1f575060408051601f3d908101601f19168201909252611a1c91810190612216565b60015b611ac7573d808015611a4d576040519150601f19603f3d011682016040523d82523d6000602084013e611a52565b606091505b508051600003611abf5760405162461bcd60e51b815260206004820152603260248201527f4552433732313a207472616e7366657220746f206e6f6e20455243373231526560448201527131b2b4bb32b91034b6b83632b6b2b73a32b960711b6064820152608401610518565b805181602001fd5b6001600160e01b031916630a85bd0160e11b149050611ae5565b5060015b949350505050565b828054611af99061211e565b90600052602060002090601f016020900481019282611b1b5760008555611b61565b82601f10611b345782800160ff19823516178555611b61565b82800160010185558215611b61579182015b82811115611b61578235825591602001919060010190611b46565b50611b6d929150611b71565b5090565b5b80821115611b6d5760008155600101611b72565b6001600160e01b031981168114610aff57600080fd5b600060208284031215611bae57600080fd5b813561073981611b86565b60005b83811015611bd4578181015183820152602001611bbc565b83811115610a315750506000910152565b60008151808452611bfd816020860160208601611bb9565b601f01601f19169290920160200192915050565b6020815260006107396020830184611be5565b600060208284031215611c3657600080fd5b5035919050565b80356001600160a01b0381168114611c5457600080fd5b919050565b600060208284031215611c6b57600080fd5b61073982611c3d565b60008060408385031215611c8757600080fd5b611c9083611c3d565b946020939093013593505050565b600080600060608486031215611cb357600080fd5b611cbc84611c3d565b9250611cca60208501611c3d565b9150604084013590509250925092565b634e487b7160e01b600052604160045260246000fd5b600082601f830112611d0157600080fd5b813567ffffffffffffffff80821115611d1c57611d1c611cda565b604051601f8301601f19908116603f01168101908282118183101715611d4457611d44611cda565b81604052838152866020858801011115611d5d57600080fd5b836020870160208301376000602085830101528094505050505092915050565b600080600060608486031215611d9257600080fd5b83359250602084013567ffffffffffffffff80821115611db157600080fd5b611dbd87838801611cf0565b93506040860135915080821115611dd357600080fd5b50611de086828701611cf0565b9150509250925092565b60008083601f840112611dfc57600080fd5b50813567ffffffffffffffff811115611e1457600080fd5b60208301915083602082850101111561112557600080fd5b60008060208385031215611e3f57600080fd5b823567ffffffffffffffff811115611e5657600080fd5b611e6285828601611dea565b90969095509350505050565b80358015158114611c5457600080fd5b60008060408385031215611e9157600080fd5b611e9a83611c3d565b9150611ea860208401611e6e565b90509250929050565b60008060008060808587031215611ec757600080fd5b611ed085611c3d565b9350611ede60208601611c3d565b925060408501359150606085013567ffffffffffffffff811115611f0157600080fd5b611f0d87828801611cf0565b91505092959194509250565b60008083601f840112611f2b57600080fd5b50813567ffffffffffffffff811115611f4357600080fd5b6020830191508360208260051b850101111561112557600080fd5b600080600080600060608688031215611f7657600080fd5b853567ffffffffffffffff80821115611f8e57600080fd5b611f9a89838a01611f19565b90975095506020880135915080821115611fb357600080fd5b50611fc088828901611f19565b9094509250611fd3905060408701611e6e565b90509295509295909350565b60008060008060408587031215611ff557600080fd5b843567ffffffffffffffff8082111561200d57600080fd5b61201988838901611f19565b9096509450602087013591508082111561203257600080fd5b5061203f87828801611f19565b95989497509550505050565b60008060006040848603121561206057600080fd5b833567ffffffffffffffff81111561207757600080fd5b61208386828701611dea565b909790965060209590950135949350505050565b600080600080606085870312156120ad57600080fd5b843567ffffffffffffffff8111156120c457600080fd5b6120d087828801611dea565b909550935050602085013591506120e960408601611e6e565b905092959194509250565b6000806040838503121561210757600080fd5b61211083611c3d565b9150611ea860208401611c3d565b600181811c9082168061213257607f821691505b60208210810361215257634e487b7160e01b600052602260045260246000fd5b50919050565b6000835161216a818460208801611bb9565b83519083019061217e818360208801611bb9565b01949350505050565b634e487b7160e01b600052603260045260246000fd5b6000600182016121bd57634e487b7160e01b600052601160045260246000fd5b5060010190565b634e487b7160e01b600052602160045260246000fd5b60006001600160a01b0380871683528086166020840152508360408301526080606083015261220c6080830184611be5565b9695505050505050565b60006020828403121561222857600080fd5b815161073981611b8656fea2646970667358221220caf838ec27b7d11d10f36307db6417381f6b66f5537504887f0334b2442e051564736f6c634300080d0033",
  "linkReferences": {},
  "deployedLinkReferences": {}
}